:020000040000fa
:080000000002040000000000f2
:020000040000fa
:040008005a03000097
:020000040000fa
:04000c005a03000093
:020000040000fa
:040010005a0300008f
:020000040000fa
:040014005a0300008b
:020000040000fa
:040018005a03000087
:020000040000fa
:04001c005a03000083
:020000040000fa
:040020005a0300007f
:020000040000fa
:040024005a0300007b
:020000040000fa
:040028005a03000077
:020000040000fa
:04002c005a03000073
:020000040000fa
:040030005a0300006f
:020000040000fa
:040034005a0300006b
:020000040000fa
:040038005a03000067
:020000040000fa
:04003c005a03000063
:020000040000fa
:040040005a0300005f
:020000040000fa
:04004400dc020000da
:020000040000fa
:04004800e6020000cc
:020000040000fa
:04004c005a03000053
:020000040000fa
:040050005a0300004f
:020000040000fa
:040054005a0300004b
:020000040000fa
:040058005a03000047
:020000040000fa
:04005c005a03000043
:020000040000fa
:040060005a0300003f
:020000040000fa
:040064005a0300003b
:020000040000fa
:040068005a03000037
:020000040000fa
:04006c005a03000033
:020000040000fa
:040070003603000053
:020000040000fa
:04007400f002000096
:020000040000fa
:040078005a03000027
:020000040000fa
:04007c005a03000023
:020000040000fa
:040080005a0300001f
:020000040000fa
:040084005a0300001b
:020000040000fa
:040088005a03000017
:020000040000fa
:04008c005a03000013
:020000040000fa
:040090005a0300000f
:020000040000fa
:040094005a0300000b
:020000040000fa
:040098005a03000007
:020000040000fa
:04009c005a03000003
:020000040000fa
:0400a000cc0200008e
:020000040000fa
:0400a400d402000082
:020000040000fa
:0400a8005a030000f7
:020000040000fa
:0400ac005a030000f3
:020000040000fa
:0400b0005a030000ef
:020000040000fa
:0400b4005a030000eb
:020000040000fa
:0400b8005a030000e7
:020000040000fa
:0400bc005a030000e3
:020000040000fa
:0400c0005a030000df
:020000040000fa
:0400c4005a030000db
:020000040000fa
:0400c8005a030000d7
:020000040000fa
:0400cc005a030000d3
:020000040000fa
:0400d0005a030000cf
:020000040000fa
:0400d4005a030000cb
:020000040000fa
:0400d8005a030000c7
:020000040000fa
:0400dc005a030000c3
:020000040000fa
:0400e0005a030000bf
:020000040000fa
:0400e4005a030000bb
:020000040000fa
:0400e8005a030000b7
:020000040000fa
:0400ec005a030000b3
:020000040000fa
:0400f0005a030000af
:020000040000fa
:0400f4005a030000ab
:020000040000fa
:0400f8005a030000a7
:020000040000fa
:0400fc005a030000a3
:020000040000fa
:040100005a0300009e
:020000040000fa
:040104005a0300009a
:020000040000fa
:040108005a03000096
:020000040000fa
:04010c005a03000092
:020000040000fa
:040110005a0300008e
:020000040000fa
:040114005a0300008a
:020000040000fa
:040118005a03000086
:020000040000fa
:04011c005a03000082
:020000040000fa
:040120005a0300007e
:020000040000fa
:040124005a0300007a
:020000040000fa
:040128005a03000076
:020000040000fa
:04012c005a03000072
:020000040000fa
:040130005a0300006e
:020000040000fa
:040134005a0300006a
:020000040000fa
:040138005a03000066
:020000040000fa
:04013c005a03000062
:020000040000fa
:040140005a0300005e
:020000040000fa
:040144005a0300005a
:020000040000fa
:040148005a03000056
:020000040000fa
:04014c005a03000052
:020000040000fa
:040150005a0300004e
:020000040000fa
:040154005a0300004a
:020000040000fa
:040158005a03000046
:020000040000fa
:04015c005a03000042
:020000040000fa
:040208005a03000095
:020000040000fa
:04020c005a03000091
:020000040000fa
:040210005a0300008d
:020000040000fa
:040214005a03000089
:020000040000fa
:040218005a03000085
:020000040000fa
:04021c005a03000081
:020000040000fa
:040220005a0300007d
:020000040000fa
:040224005a03000079
:020000040000fa
:040228005a03000075
:020000040000fa
:04022c005a03000071
:020000040000fa
:040230005a0300006d
:020000040000fa
:040234005a03000069
:020000040000fa
:040238005a03000065
:020000040000fa
:04023c005a03000061
:020000040000fa
:040240005a0300005d
:020000040000fa
:040244005a03000059
:020000040000fa
:040248005a03000055
:020000040000fa
:04024c005a03000051
:020000040000fa
:040250005a0300004d
:020000040000fa
:040254005a03000049
:020000040000fa
:040258005a03000045
:020000040000fa
:04025c005a03000041
:020000040000fa
:040260005a0300003d
:020000040000fa
:040264005a03000039
:020000040000fa
:040268005a03000035
:020000040000fa
:04026c005a03000031
:020000040000fa
:040270005a0300002d
:020000040000fa
:040274005a03000029
:020000040000fa
:040278005a03000025
:020000040000fa
:04027c005a03000021
:020000040000fa
:040280005a0300001d
:020000040000fa
:040284005a03000019
:020000040000fa
:040288005a03000015
:020000040000fa
:04028c005a03000011
:020000040000fa
:040290005a0300000d
:020000040000fa
:040294005a03000009
:020000040000fa
:040298005a03000005
:020000040000fa
:04029c005a03000001
:020000040000fa
:0402a0005a030000fd
:020000040000fa
:0402a4005a030000f9
:020000040000fa
:0402a8005a030000f5
:020000040000fa
:0402ac005a030000f1
:020000040000fa
:0402b0005a030000ed
:020000040000fa
:0402b4005a030000e9
:020000040000fa
:0402b8005a030000e5
:020000040000fa
:0402bc005a030000e1
:020000040000fa
:0402c0005a030000dd
:020000040000fa
:0402c4005a030000d9
:020000040000fa
:0402c8005a030000d5
:020000040000fa
:0402cc005a030000d1
:020000040000fa
:0402d0005a030000cd
:020000040000fa
:0402d4005a030000c9
:020000040000fa
:0402d8005a030000c5
:020000040000fa
:0402dc005a030000c1
:020000040000fa
:0402e0005a030000bd
:020000040000fa
:0402e4005a030000b9
:020000040000fa
:0402e8005a030000b5
:020000040000fa
:0402ec005a030000b1
:020000040000fa
:0402f0005a030000ad
:020000040000fa
:0402f4005a030000a9
:020000040000fa
:0402f8005a030000a5
:020000040000fa
:0402fc005a030000a1
:020000040000fa
:040300005a0300009c
:020000040000fa
:040304005a03000098
:020000040000fa
:040308005a03000094
:020000040000fa
:04030c005a03000090
:020000040000fa
:040310005a0300008c
:020000040000fa
:040314005a03000088
:020000040000fa
:040318005a03000084
:020000040000fa
:04031c005a03000080
:020000040000fa
:040320005a0300007c
:020000040000fa
:040324005a03000078
:020000040000fa
:040328005a03000074
:020000040000fa
:04032c005a03000070
:020000040000fa
:040330005a0300006c
:020000040000fa
:040334005a03000068
:020000040000fa
:040338005a03000064
:020000040000fa
:04033c005a03000060
:020000040000fa
:040340005a0300005c
:020000040000fa
:040344005a03000058
:020000040000fa
:040348005a03000054
:020000040000fa
:04034c005a03000050
:020000040000fa
:040350005a0300004c
:020000040000fa
:040354005a03000048
:020000040000fa
:040358005a03000044
:020000040000fa
:04035c005a03000040
:020000040000fa
:100400008f8520000edf20000e0188000000000014
:10041000000020000000e000020032000001200087
:100420002002880014000700a40007000000e0007c
:1004300003003a00208e2100010020000200370056
:100440000000200001002000810f70000100320038
:1004500014000700000020000000e000020032004d
:1004600000000200000000003c1902000000000033
:100470000040da000000fe004440a900200d2000ea
:100480000000e0000300320000002000a00188000e
:100490004440a800000006008a1f78008b1f7800e7
:1004a0000000060091018800800478000000eb0045
:1004b0001a003700e284440032a0b4009905ba0063
:1004c000e284440032a0b4009906ba00e2844400f9
:1004d00032a0b4000006eb00476fde00fd07b2005b
:1004e000636ce10003003a00ebff07000000eb0043
:1004f0000a003700606ce10004003a00005deb0088
:100500008b05e900fdff3e00040037006168e10053
:10051000010032000086eb000b00070019c7ba008b
:100520001905ba000e04e00003003a000a00e000da
:10053000e0ff3a0000000600fe07b2009e018800be
:100540008a047800f5ff3700395dba008b05e900b1
:100550000c003200295dba008b05e900080032006a
:100560000c00e00003003a00e284440032a0b40032
:10057000f5ff370019ddba008b05e900faff3a00f4
:100580008904e800e184440032a0b40000000600c1
:1005900000000000000000000000fa0087c0a90071
:1005a0000080fa00004006000000fa0087e0a90081
:1005b0000080fa00004006000000fa0084e0a90074
:1005c00011e1a9000080fa00004006000000fa00d6
:1005d0008500a90011e1a9000080fa000040060092
:1005e0003600f800809fbe00829fbe00849fbe0040
:1005f000869fbe000000fa008660a9009660a900f0
:1006000050168000700060000000e000040032001e
:1006100010168000700060000000e00007003a0043
:10062000d0408000d1408000910078008100e80037
:1006300001087800bb08070003003700d0408000a5
:100640008000eb00010878009660a8000000000020
:100650000080fa004f03be004f02be004f01be00f3
:100660004f00be003600f900004006003600f800da
:10067000809fbe00829fbe00849fbe00869fbe00fa
:100680000000fa00f20607008640a9003526a900fe
:100690003726a900000000000080fa004f03be00ca
:1006a0004f02be004f01be004f00be003600f900f1
:1006b000004006000040da000000fe0000000500d7
:1006c00003f0a200889fbe008a9fbe008c1f7800a6
:1006d000c7000700ce0033006450e1004f00320035
:1006e0006420e1005200320003826c0007003b00ee
:1006f0000905d0000306d000820f54000c065d00ef
:1007000002003900020032008901780003067800f7
:100710008582550004003d000003fd008103fd00bb
:100720008502ea008b854200840f720002003b00c4
:1007300060001000e08018006011b8000005eb00b8
:100740007a28e1000a00390006007800c75ddd0064
:10075000f707b200878075002d0037008281710095
:100760000a017800610560008180d1000080d3001b
:100770008502e900f9ff3b00060440008784480039
:1007800002003b0060041400e0841c000988a30000
:10079000070032008a81710082817100610164006a
:1007a0008904d1000884d3008b05e80017003700c6
:1007b0000978a30013003a000b00e0001300340096
:1007c0008b05e9000804440089844c000a44740045
:1007d0000978a3000d003a000b00e0000700340088
:1007e0008b05e9000804440089844c0001003a00ac
:1007f0000b0020000978a300f7ff32000001eb0096
:1008000002003700828171000a017800520007005f
:100810000cf0a70001f0a000860037006420e10082
:1008200002003a00838f6c00860033000801be008e
:100830000200be007f003700889fbe008a9fbe0076
:100840008c1f78006a0007007100330003866c007b
:100850006450e1002e0032006420e10033003200d9
:100860006150e1002f0032006120e10031003200d0
:1008700085855500eb07b000090020000804200022
:10088000050037000804440089844c000a00310048
:100890000603430087834b000001530081815b0006
:1008a000f8ff33000203be000800a0000804440063
:1008b00089844c00f6ff3900c639dd0083017300de
:1008c00001003200130020008904d1000884d30005
:1008d0000998a300050032000800a7000300a0004b
:1008e0008904d1000884d3008b05e8008904d10075
:1008f0000884d3000001eb000281d200160007003b
:1009000001f0a1000cf0a70001f0a00049003700a1
:100910006420e1004b0032000801be000200be006e
:10092000f7ff37006120e100460032006000b800a8
:10093000f3ff37000000200001f82700f0ff370028
:100940001400200076003700f4ff2f0074003700f9
:100950006011b8008d0037008100200061805500d3
:100960000b003d000b00200061fe2f000100e100a4
:100970001d00340082817100610164008904d1008e
:100980000884d3000000e800faff3a00710020005c
:100990006100640003007000020060000900320082
:1009a00061044400e0844c000988a5000500320081
:1009b0008b05e8006808e10002003a008904d100d4
:1009c0000884d300f20f20000258e10005003d002a
:1009d000c75ddd00f907b200898075000800780066
:1009e000000006000bf827008b00780000000500cf
:1009f0000004be00940007000003be000405be0012
:100a00000200be0090000700844f75000000060041
:100a10000200be006450e100050036006420e100e1
:100a2000020036000968a30001003a000800be0079
:100a30000160a0004f0678004f05be004f04be00c5
:100a400000000600f0ff2f00f1ff2700f9ff37003c
:100a5000889fbe008a9fbe008c1f7800e4ff0700bd
:100a6000ebff330003866c006450e1002400320089
:100a70006420e100270032006150e10022003200d2
:100a80006120e100210032008b854200eb07b100bc
:100a90000134b800003ab8000804420089844a00d2
:100aa000013ab8000030b8008880400009014a00cf
:100ab000040033000000400081804800020149002a
:100ac0008b05e900c909dd008301700001003200d7
:100ad00013002000c814de004814dd004709de00c2
:100ae0001200b200c808de00088470009aff0700f8
:100af00001f0a1000cf0a70001f0a000cdff37002d
:100b00006120e100cfff32000801be000200be00fc
:100b1000f7ff37006150e100fcff3a00c9ff3700e2
:100b2000889fbe008a9fbe00841f7800b0ff070028
:100b30004f00780011003300f0ff2f00838f6c000e
:100b400006003b00040565000a00a7000800370006
:100b500009f0a6001000200008003700820f5400a2
:100b6000838f5c00030039001000200001003e006c
:100b70000000200009f0a7000000ea004f05be00b9
:100b80004f04be000000e00000000600889fbe0089
:100b90008a9fbe000082700004027100048271000e
:100ba000260032000004be000200be006011b80042
:100bb0006b092000950220000182cf000a00390055
:100bc0000541b1000082cf00070039000541b100a6
:100bd0000982cf00040039000541b1000882cf002e
:100be000010039000541b1000542520012003200f7
:100bf0000a003b0082817100610164008100d10024
:100c00000080d3008984d3000884d3008b05e800da
:100c10000442e800f7ff3a000700370008044400e8
:100c200089844c0000004800818048008b05e90061
:100c30000442e900f9ff3a0047ff07004f05be00f4
:100c40004f04be0000000600c70ade00f107b20034
:100c5000f50fb20008003200e1cf4200020032007e
:100c60000170a00024000500810f70000100320017
:100c70000408050044000500810f700002003a00de
:100c8000140005008502e9000000400081c0480012
:100c9000fcff3b000170a0002400050080007800ec
:100ca000010178003104e000fdff3a00000051002e
:100cb00000000600881f7800020478000801780010
:100cc000d6010700080040004f047800000006002d
:100cd0000000fa00881f780000047800ea815700bd
:100ce0003fb9970088007800a06520000700070042
:100cf0000000e000020035008040eb000174780045
:100d00004f0478000080fa00000006006200fa003c
:100d1000889fbe008a1f7800000578008104780053
:100d2000020478008300780080f92f000f00400053
:100d3000b80307009a979f00a9979f000000eb0057
:100d4000b09f9f001885fb008a04fb000a05ea009b
:100d50004f55de0050022000808f54000d003200fd
:100d6000e10f55000b003a000a0178008800780076
:100d70002f9097009f91970003000100a0979f007c
:100d80000000e0008e0032003f9897000000e8006d
:100d9000b09f9f000a04440050022000808f54003e
:100da000040032000900e000e6ff3a003f98970097
:100db000840037000000eb00909f9f00809f9f0001
:100dc000f0979f00e0979f00d0979f00c0979f00eb
:100dd000070037002185200001005000000040007e
:100de0006184200061007800df98970001007000a6
:100df000d09f9f0088047800090478003845780067
:100e00008a00fb00208520008b0107000000e00025
:100e1000f0ff3a00a1c2b300814f55000e003a0026
:100e2000cf8897000180e900c08f9f0010007800f4
:100e3000c09f9f000000e00005003d000000ea00a8
:100e4000c09f9f005f9897000020a000d09f9f0048
:100e50000904e8000f003700c09f9f000000eb006e
:100e600005003700f2ff2700820f50000200320019
:100e70006a01b90002804000090478008804780003
:100e8000b900fb000103b100e98f5000f5ff360007
:100e9000c09f9f00e0c2b300984f100002003200d4
:100ea0000080eb0019003700a0c2b300d84f10003b
:100eb00007003a00cf8897000180e900c08f9f00ab
:100ec00010007800a09f9f000804e8001000370081
:100ed0000000eb00a09f9f0088007800050037000d
:100ee000f3ff2700830f5000020032006a02b900ae
:100ef0000400410001047800880078003101fb0003
:100f00000203b100e90f5100f5ff3600a09f9f00da
:100f1000984478008900fb00e08320004601070028
:100f20000000e000020032000804e8000100370081
:100f30008044eb00c97f9f0080c6b30080cf54007f
:100f400004003a0098cf14000a003a0066405000ae
:100f500006003700c0c6b30080cf540005003a0039
:100f600098cf140003003a0065404000c07f9f0006
:100f70000804e8001801fb00e3fb2f008f8141000b
:100f800081f92f008f804000a0f92f000f00400052
:100f9000100007000000e00009003a00e1fb2f000c
:100fa0008f804000a0f92f000f0040005d02070075
:100fb0000000e000020035000804e80061ff37008f
:100fc0000080eb004f0578004f04be000080fa005f
:100fd00000000600889fbe008a9fbe00e4c6b300e2
:100fe000844f5100be00320010003c006b425200a2
:100ff000844f51001800320005003c0054c2b30079
:10100000844f5100f600320084c5b3000f00370052
:1010100044c6b300844f51001400320065424200c0
:10102000844f5100f1003a001000370004c7b300ac
:10103000844f5100dd003200560035006542420009
:10104000844f51005300320063424200844f5100ec
:10105000e6003a004f0037001181e900820878006d
:10106000f000900012417800de003700206290000e
:10107000c5c6b300854f520007003a0091027800c0
:1010800064825200840878001402be004fabde0078
:10109000860378001400370015c7b300854f52004f
:1010a00003003a001104780068025400050037007c
:1010b000a5c6b300854f520006003a00910478009f
:1010c00068825400840878005403be004402be00c5
:1010d000050037001182e9008408780014027800c6
:1010e000cfa2de00612bb9000498be000690be00be
:1010f000a060900088c6b30088cf50000d00320079
:1011000028c6b30088cf500004003a000402fb0058
:10111000cfa2de00612bb9000800370048c7b3003a
:1011200088cf5000030032006644440088cf50004e
:1011300004003a00cfa2de00612bb9000498be0083
:101140000690be003002be002003be00f0009000fa
:10115000e00f5200e08f5a00e00f5b00e08f5b0071
:1011600002003d00d4c2b300080037000012900016
:101170000418a30002003200b4c2b3000300370019
:101180000408a3005100320004c2b30084f17800c7
:101190004c00370020629000c5c6b300854f520056
:1011a00008003a00110578006402550084087800b0
:1011b0001404be006055b8000802be000a03be0059
:1011c0001400370015c7b300854f520003003a00e2
:1011d000910478006882540005003700a5c6b3006a
:1011e000854f520006003a0011057800680255004c
:1011f000840878005403be004402be000500370096
:101200001182e90084087800140278008002eb0063
:101210006033b8000498be000690be00a060900045
:1012200088c6b30088cf50000d00320028c6b30036
:1012300088cf500004003a000482fb008002eb00db
:101240006033b8000800370048c7b30088cf5000ab
:10125000030032006644440088cf500004003a0086
:101260008002eb006033b8000498be000690be0018
:10127000801090000138a300140032003002be003c
:101280002003be00e00f5200e08f5a00e00f5b0029
:10129000e08f5b000d00320081c7b300814f510029
:1012a0000300320081c5b300814f510007003a00ae
:1012b000f000900004c3b30084f178008100e800de
:1012c00082f178008100e80071009800f000900041
:1012d0008181410063009800824078003e00370021
:1012e000a0619000c4c6b3001181e90084cf510011
:1012f000220032000a003c006442520084cf5100b8
:101300002500320004c2e80084cf510013003200ef
:101310006842520084cf51001e003a000a00370094
:1013200044c7b30084cf51001b0032006642420024
:1013300084cf5100180032006942520084cf51001e
:1013400014003a0005003700820878009200780007
:1013500040589000804878002c00370082087800c0
:1013600092007800600a9000cfa2de00612bb900e5
:101370008498be008690be00240037008208780062
:101380009200780060099000cf91de008288be0054
:101390001e0037001181e900820878009200780071
:1013a0006008900080087800180037001181e9007b
:1013b0008208780012027800cfa2de00612bb9000b
:1013c0000498be000690be00f000900081814100ac
:1013d0006300980081c7b300230007000b003700ab
:1013e000f000900082f1780006003700f0009000d5
:1013f000818141000204e00001003a0052c2b300c2
:10140000824978008100e800710098000000eb003c
:101410004f05be004f04be000000060080017800aa
:1014200002003700b15978000201e9000200e00033
:10143000fcff3a0000000600020037000304e00051
:10144000060032000001780002007800b041780008
:1014500081cf5100f9ff3a00010037000001eb0095
:101460000200780000000600fc874700889fbe004d
:101470008a9fbe008c9fbe008e1f780000067800f9
:1014800080c5b30080cf50000a0032007740400092
:1014900080cf50000a0032006940400080cf5000e9
:1014a0000b003200d082200080bf9f00ae002000e1
:1014b0000a003700c281200082bf9f00060037006b
:1014c000d382200083bf9f008e00200003003700de
:1014d000d482200084bf9f000e0120003c02be0089
:1014e0002c03be000605be000404be0040c6b300c7
:1014f00080cf5000030032006540400080cf500094
:101500000b003a00e00f5200e08f5a00e00f5b0042
:10151000e08f5b0006003d006000b8006011b8007d
:101520000404500085845800060559008785590039
:10153000e80f57000400320040002000f00f570071
:1015400038003a000100370030002000e00f54005e
:10155000e08f5c00e00f5d00e08f5d0004003a006a
:10156000dc0890008d0120000100e0000600320040
:101570008e00e900888060008fba9700e5c078008f
:10158000f1ef9f007d012000800078008100e900dc
:10159000050033008b05d1000a85d3008984d30070
:1015a0000884d300f9ff3700089ebe000a96be00eb
:1015b000120037008d06e9008e00e900848060008b
:1015c0000fb99700e2c1780082fd2f000f014100a2
:1015d00003f17e00800078008100e90005003300ff
:1015e0008783d1000683d3008582d3000482d30091
:1015f000f9ff3700049ebe000696be003c02be0006
:101600002c03be00e00f5200e08f5a00e00f5b0099
:10161000e08f5b008b0034000d00e000e5ff3c0034
:10162000880037002c60900081c6b300814f5000c5
:101630000b00320006003c000004e000080032000d
:10164000e6c05000814f50004e003a0004003700c1
:10165000c1c6b300814f50004a003a002100370054
:101660000800e00004003a005c0890008d012000b2
:101670000000e00006003200110009000e84d800ce
:101680000fb99700e2c07800f1ef9f007d012000c4
:10169000110009000e84d8000a003700110009006b
:1016a0000e04d8008d06e9000e81b9000204540032
:1016b0008fb8970061417c0081fd2f008f80400032
:1016c00082f07e00000478000800e0000200320092
:1016d0000d00e000f1ff3c00cfc4de00614db90019
:1016e00025003700e00f5400e08f5c0004003a0052
:1016f0005c0890008d0120000000e000070032002f
:101700006171b9000800be00630107008fb997003e
:10171000e3417800f3ef9f007d0120006171b90083
:101720000800be004c0107000b0037006171b900d2
:101730000800be00390107008d06e90000f1b9007c
:10174000020454000fba9700e4427c0084fd2f008d
:101750000f02420005f27e000004be00e00f5000c0
:10176000e08f5800020032000d00e000efff3c0067
:101770004fcdde008a057800089ebe000a96be00a6
:1017800030003700e00f5400e08f5c00e00f5d0098
:10179000e08f5d0004003a005c0890008d0120009d
:1017a0000000e000090032006172b900612bb9004d
:1017b0000800be000a01be00da0107000fba970058
:1017c00064427800f4ef9f007d0120006172b9004f
:1017d000612bb9000800be000a01be00ca01070063
:1017e0000d0037006172b900612bb9000800be001e
:1017f0000a01be00cf0107008d06e90000f2b90022
:10180000040454008fba970065427c0085fd2f00c8
:101810008f82420084f27e00009ebe000296be00cf
:101820003c04be002c05be00e00f5400e08f5c00bd
:10183000e00f5d00e08f5d00020034000d00e0006d
:10184000e8ff3c00e80f570010003a000c10900031
:101850000038a3000d003200f78f560006003e004e
:1018600085fd2f008f824200e5c07e0000c3b300db
:1018700080cf5000050032008d06e90002c3b3009e
:1018800081fd2f008f80400082f07e00788116005d
:10189000120e98006c00900083fd2f008f81410094
:1018a0008d804100ddfe07001c089000dc089000e0
:1018b000810f500006003d0000805000000e98008f
:1018c0000c1090000040a100001698000f00370097
:1018d0000100e0000d003d008c109000f4806000dd
:1018e000f08f500009003a007c099000fc00900045
:1018f000810051000c09900082805000008050004f
:101900004240a90001003400000e98004f07780003
:101910004f06be004f05be004f04be00cf01b10010
:10192000000006000400fa00889fbe008a9fbe00e7
:101930008c1f78000004780001067800f80d9000f4
:10194000780090008085550008089000808555003b
:101950001808900080855500280890008085550063
:101960003808900080855500480890008085550013
:101970000002220090bf9f0000032300a0bf9f0031
:10198000081090000028a30015003a000b00e000aa
:10199000130034000b0578008a047800e20f55002c
:1019a0000100360029002000c801900009017800dc
:1019b000ee8057005800900003000100500498008a
:1019c0000000e0008c003200680890000900400030
:1019d000600c9800090555004240a900eeff3c004c
:1019e000780190000200e0000c003400c801900073
:1019f0008c0078005800900003000100500498000b
:101a00008080eb000000e0007c003200e8089000dd
:101a10007800900000804000600c9800880c9000d6
:101a20000900e0001100340009057800e28f54003d
:101a3000010036002a002000c80190000a01780049
:101a4000ec805700580090000300010050049800fb
:101a50000000e00068003200680890000a004000c2
:101a6000600c98008a845400edff3700180990003c
:101a70000200e0000c003400c8019000e800900073
:101a80005800900003000100500498008080eb0093
:101a90000000e00059003200e808900018089000ab
:101aa00000804000600c9800a80c90000900e00045
:101ab0001100340009057800e28f5400010036005f
:101ac0002a002000c80190000a017800ec8057002d
:101ad0005800900003000100500498000000e0004e
:101ae00045003200680890000a004000600c980031
:101af0008a845400edff3700380990000200e000ae
:101b00000e003400e800900018089000808040002b
:101b1000c801900058009000030001005004980094
:101b20008080eb000000e00034003200e808900004
:101b30003808900000804000600c9800c80c9000ad
:101b40000900e0001100340009057800e28f54001c
:101b5000010036002a002000c80190000a01780028
:101b6000ec805700580090000300010050049800da
:101b70000000e00020003200680890000a004000e9
:101b8000600c98008a845400edff37000810900024
:101b90008000eb000028a300180032000b00e000da
:101ba000160034008b04780009057800e28f540099
:101bb000010036002a002000c80190000a017800c8
:101bc000ee80570058009000030001005004980078
:101bd0000000e00008003200680890000a004000a1
:101be000600c98008a8454004240a900eeff3c003b
:101bf0008000eb00010037008080eb0001007800de
:101c00004f0678004f05be004f04be000080fa006a
:101c1000000006000108780000000600839f6800ad
:101c20000100e00002003d0060001000e0801800ac
:101c30000300e00002003d0060011100e081190096
:101c4000050007004f00e00002003b0060001000ac
:101c5000e0801800000006006022b80006022000a4
:101c60000000d0008180d2000482d2008582d200a0
:101c70000000a0000202520083825a0003003100db
:101c80000202420083824a000000a1000603e9002c
:101c9000f3ff3a0000000600efff07000400be005b
:101ca00000000600889fbe008a9fbe0030044200ec
:101cb000b0844a0030054b0090854b006000b100b5
:101cc0000898be000a90be000440e10005c8e1008b
:101cd00006d0e10007d8e1000200310068004000b2
:101ce0001008e8004f05be004f04be0000000600cb
:101cf000889fbe008a9fbe003004be002005be0043
:101d00000418540005985c0006185d0007985d00f3
:101d1000110020000440e10005c8e10006d0e10008
:101d200007d8e100010039008000eb0010881000a6
:101d30004f05be004f04be00000006001200fa006e
:101d4000889fbe008a9fbe008c9fbe00e0b79f00a8
:101d5000f1b79f0082bf9f0093bf9f000605be00a2
:101d60000404be000000eb00d0b79f00c0b79f0086
:101d7000b0b79f00a0b79f0090b79f000006eb0090
:101d80005fb19700cfb09700820141003fb097004c
:101d90000200e00004003d00370007007e8057008d
:101da000c0ff070003003700330007007e805700a4
:101db000cfff0700dfb697000d00e0000c003500f4
:101dc0006fb29700ffb297000fbb97009fbb9700c1
:101dd00010002000010020006011b8000002720015
:101de0008182720002037300838373001b0007006b
:101df0000c06e80001042000810f5600e0ff3a00c5
:101e00000d00e00004003d000802be000a03be0011
:101e10007e805700a3ff07005fa897000000e00046
:101e200005003a001fb29700afb297003fb397008a
:101e3000cfb39700090007006fb09700ffb097007d
:101e40000fb997009fb997004f06be004f05be001f
:101e50004f04be000080fa000000060001000700e9
:101e600000000600a4b79f00b5b79f00c6b79f004b
:101e7000d7b79f00000006004f09de008281710085
:101e8000b3b79f004f01de00818040008280700068
:101e9000a1b79f008fb097004f09de0000004000ff
:101ea0000200700090b79f007fa897004f01de00ee
:101eb000818040008280700081b79f000d00070084
:101ec0004f3ade000000400004007000f0af9f00b9
:101ed000080007000402420085824a0006034b0006
:101ee00087834b00dfff07000802be000a03be0025
:101ef000000006002fb29700bfb297004fb39700c3
:101f0000dfb3970000000600881f7800180020004b
:101f1000881f780089ff07008f87e9004f04780049
:101f200000000600801feb0084ff07008f87e90098
:101f300000000600889fbe008a9fbe00e00f500090
:101f4000e08f5800e00f5900e08f59000c003d0071
:101f50006044b8006055b8000000540081805c0007
:101f600002015d0083815d0018002000150007005c
:101f700008003d00180007000004eb0005003700d2
:101f80000004eb000f00070002003d0012000700f4
:101f900018002000dcff07000800e0000600320007
:101fa0006022b8006033b8000000520081805a00ff
:101fb00002015b0083815b004f05be004f04be0041
:101fc00000000600e00f5200e08f5a00e00f5b00b7
:101fd000e08f5b00000006006044b8006055b80068
:101fe0000402540085825c0006035d0087835d0067
:101ff00000000600889fbe008a9fbe008c1f7800ec
:10200000e00f5000e08f5800e00f5900e08f5900ba
:102010000d003d006044b8006055b8000000540059
:1020200081805c0002015d0083815d001c00200056
:102030000820e10009a8e1000ab0e1000bb8e100c6
:102040000d003d00080037000006eb00e00f5200d5
:10205000e08f5a00e00f5b00e08f5b0006003d0060
:102060006044b8006055b8000402540085825c00ea
:1020700006035d0087835d00aaff07000c00e000f7
:10208000060032006022b8006033b8000000520041
:1020900081805a0002015b0083815b004f0678005b
:0c20a0004f05be004f04be00000006000b
:020000040000fa
:1020ac004f560000455200002d43000048410000ef
:1020bc0052470000450a00000d0000004e4f000082
:1020cc00524d0000414c00002043000048410000ec
:1020dc0052470000450a00000d000000554e00005c
:1020ec0044450000522d00004348000041520000be
:1020fc00474500000a0d00000025000064000000a8
:10210c0043560000522000003d200000003b000020
:10211c00200000004356000052520000203d0000f9
:10212c00200000000a0d0000004200006f74000047
:10213c006820000062750000747400006f6e00006f
:10214c007320000070750000736800006564000067
:10215c002e200000507200006573000073200000f8
:10216c006f6e00006c790000206f00006e6500003f
:10217c002e0a00000d0000004e2000003d20000043
:10218c000053000065740000746900006e67000065
:10219c00206600007265000071750000656e00001d
:1021ac006379000020640000697600006964000017
:1021bc0065720000207400006f2000000000000019
:1021cc004134000020770000617300002070000093
:1021dc007573000068650000642e0000204200004a
:1021ec00342000007761000073200000707500003f
:1021fc007368000065640000210a00000d000000f7
:10220c004134000020770000617300002070000052
:10221c007573000068650000642100000a0d000061
:10222c0000420000342000007761000073200000a1
:10223c00707500007368000065640000210a0000de
:04224c000d00000081
:020000040000fa
:102250000000fa00800c2000eb020700a131800092
:1022600000202000008060000000e0000b00320031
:10227000a131800000102000008060000000e0001c
:1022800003003a0060052900b7020700120037007a
:1022900040062900b40207000f003700b13180006a
:1022a00000202000008060000000e0000a003200f2
:1022b000b131800000102000008060000000e000cc
:1022c0000300320040072900a70207000200370080
:1022d00040062900a40207003526a9003726a900d8
:1022e0000080fa00000006000000fa00800c2000c8
:1022f000c50207000cc8bf000080fb008000e8009a
:1023000014c8bf000080fb00000178001100090024
:102310008200d8008000fd00004078000ce8b70083
:102320000cc8bf000004e0000e003a0060168000f8
:102330004d00de006140600011c0b30000c05000dd
:10234000614060000080fb00610060004d00dd0026
:1023500062168000f1ff2d00810061000100700015
:10236000601688000080fa00000006000000fa00f5
:1023700061058000f08f2f008080600000502000f9
:1023800001007000600588008640a9009640a80002
:1023900037a6a90037e6a80037c6a8003726a90047
:1023a000b1318000000c200001007000b0318800c5
:1023b0003686a800b1318000c0ff2f000080600089
:1023c0000000a000b03188000080fa000000060084
:1023d0000000fa00c042a800c062a800c822a800fd
:1023e00061058000f08f2f00808060000050200089
:1023f00001007000600588008640a9009640a80092
:1024000035a6a90037a6a90035e6a80035c6a8005c
:102410003526a900a1318000000c200001007000c9
:10242000a031880037e6a80037c6a8003726a900e3
:10243000b1318000000c200001007000b031880034
:102440003486a900a1318000c0ff2f000080600009
:10245000a03188003686a900b1318000c0ff2f006e
:10246000008060000010a000b03188000080fa00f9
:10247000000006001a00fa00881f7800300f98004c
:10248000410f980018c0b3006011b8003e089000da
:10249000ce0890002af907000000e0000100350096
:1024a0000044eb000804e00012013a0018c0b30039
:1024b00002002000030524003e089000ce08900092
:1024c00021f907000000e00001003c000044eb009f
:1024d0000804e00009013a0018c0b30002d5280042
:1024e000530124003e089000ce08900016f9070022
:1024f0000000e00001003c000044eb000804e000a4
:102500002500320032a6a90090318000f000b3000f
:102510009031880090318000004078006f4060006a
:102520000080fb00801f780030082900801f7800a1
:1025300000802000e6f90700e487570060082900c2
:10254000090207000080200007020700d0082900c8
:1025500005020700903180004500de006140600008
:102560000080fb00801f780030082900801f780061
:1025700000802000d6f90700e487570000092900f1
:10258000f901070000802000f701070080092900f9
:10259000f5010700da0037000000200001f52300f4
:1025a00010079800210798000000200001fd23007b
:1025b00030079800410798000000200001d5230053
:1025c000500798006107980018c0b3001e019000e2
:1025d000ae0190003e089000ce089000daf80700a7
:1025e0000000e00001003c000044eb000804e000b3
:1025f0006f00320032a6a9000000eb00000f780047
:10260000440037001e0078008000eb00d0f807007f
:10261000020020000318240087f807003e01900004
:10262000ce0190000af907001e019000ae01900053
:1026300024f807005e019000ee01900021f80700e9
:1026400018c0b3003e099000ce099000bef8070004
:102650000000e00001003c000044eb000804e00042
:102660002b0032001e007800004078006f406000b0
:102670000080fb006f0060009231800001ff2f009e
:10268000810061000100700090318800903180006d
:10269000004078006f4060000080fb00801f7800e1
:1026a00030082900801f78000080200088f907008a
:1026b000e487570060082900ab0107000080200074
:1026c000a9010700d0082900a70107009031800068
:1026d0004500de00614060000080fb00801f780044
:1026e00030082900801f78000080200078f907005a
:1026f000e4875700000929009b01070000802000a3
:102700009901070080092900970107007c00370024
:102710001e0fe8001e007800ef0f5000b9ff3600d2
:1027200090318000f000b30090318800903180003b
:10273000004078006f4060000080fb00801f780040
:1027400030082900801f78000080200060f9070011
:10275000e4875700600829008301070000802000fb
:1027600081010700d00829007f0107009031800017
:102770004500de00614060000080fb00801f7800a3
:1027800030082900801f78000080200050f90700e1
:10279000e48757000009290073010700008020002a
:1027a00071010700800929006f01070054003700fc
:1027b00032a6a800b0aa2a00a10024007007980041
:1027c000010f9800b0aa2a00a1d82300100f98008a
:1027d000210f98000000eb00000f78004100370047
:1027e0001e0078008000eb0059f80700020020006e
:1027f0000318240010f807007e0190008e09900055
:1028000093f807001e099000ae099000adf707008d
:1028100018c0b3003e099000ce0990004af80700a6
:102820000000e00001003c000044eb000804e00070
:102830002b0032001e007800004078006f406000de
:102840000080fb006f0060009231800001ff2f00cc
:10285000810061000100700090318800903180009b
:10286000004078006f4060000080fb00801f78000f
:1028700030082900801f78000080200014f907002c
:10288000e487570060082900370107000080200016
:1028900035010700d008290033010700903180007e
:1028a0004500de00614060000080fb00801f780072
:1028b00030082900801f78000080200004f90700fc
:1028c000e487570000092900270107000080200045
:1028d00025010700800929002301070008003700af
:1028e0001e0fe8001e007800ee0f5000bcff3600ff
:1028f0000300370000000000010037000000000066
:102900004f0478000080fa00000006000200fa0080
:10291000000f78009e007800514088000080fa0087
:10292000000006000000fa00400620003601070003
:102930005040800010007800e10f500044003a0041
:1029400010168000700060000000e00007003a00f0
:1029500050168000700060000000e00003003a00a4
:10296000b009290000010700390037001016800067
:10297000700060000000e0001d003a00501680006a
:10298000700060000000e00019003200618120004a
:102990009140780015c8bf0080cf5000030032007e
:1029a00016c8bf000040e8000100370010c0b300a7
:1029b00016e8b70016c8bf000080fb00801f780033
:1029c00030082900801f780000802000c0f8070030
:1029d000e4875700200c2900e30007000080200056
:1029e000e100070080092900df0007001800370018
:1029f00010168000700060000000e000140032003b
:102a000050168000700060000000e00010003a00e6
:102a100016c8bf0014e8b70014c8bf000080fb0050
:102a2000801f780030082900801f78000080200077
:102a3000a7f80700e4875700700c2900ca000700b8
:102a400000802000c800070080092900c600070098
:102a50000080fa00000006000000fa00c802a90089
:102a6000c822a800cc02a8008000200080118800a5
:102a7000113a8000000027008080600000002600de
:102a8000808f500003003a00c0002000c011880071
:102a900010003700113a800000002700808060009d
:102aa00000002500808f500003003a00c000200085
:102ab000c011880007003700113a8000000027008d
:102ac000008060000000e00002003a007006200074
:102ad000c011880000002a009011880087e0a9003a
:102ae00091058000f0ff2800808060000000230036
:102af000010070009005880097e0a80087c0a90039
:102b000091058000f08f2f000080600000a0a000e1
:102b10009005880097c0a90031e2a8003342a800c0
:102b20000080fa00000006000400fa00004f780060
:102b300011079800c8ff07000d0037000140fe0094
:102b400001003700000000009111800000202000eb
:102b5000008060000000e000f8ff3a001e00fb006b
:102b6000a01188001e0090000000e90010079800e6
:102b70001e0090000000e000f2ff3a00000000009c
:102b80009111800000102000008060000000e00033
:102b9000fbff320031e2a9000080fa0000000600cd
:102ba0000400fa00100798000040eb00104798005e
:102bb0001100200000c2b300dbff0700110020005d
:102bc00000c3b300d8ff07001100200080c7b30086
:102bd000d5ff070030c0b300004f78001500370064
:102be0001e00fb004200dd009e0090000008de0099
:102bf000004078006f406000104798001e40900031
:102c0000e94f5000040034001e4090007043b000b3
:102c100010479800030037001e4090000043b000aa
:102c200010479800110020001e409000beff0700d2
:102c30001e4fe9001e4078000004e000e8ff3d0060
:102c40001100200000c2b300b7ff07000000eb0036
:102c5000100798000080fa00000006000600fa0045
:102c600010079800210798000040eb0010479800db
:102c70001100200000c2b300abff070011002000cc
:102c800000c3b300a8ff07001100200080c7b300f5
:102c9000a5ff070070c0b300004f78001b0037008d
:102ca0001e00fb004201dd001e009000ae009000ff
:102cb000820178008301e900030033008100d10024
:102cc0000080d300fbff3700004078006f406000b9
:102cd000104798001e409000e94f50000400340057
:102ce0001e4090007043b00010479800030037006a
:102cf0001e4090000043b0001047980011002000d3
:102d00001e40900088ff07001e4fe9001e4078001b
:102d10000004e000e2ff3d001100200000c2b3000b
:102d200081ff07006000b800100798002107980095
:102d30000080fa00000006000200fa00000f780090
:102d40001100200000c2b30077ff07001e007800ca
:102d5000004078000043b0001100200072ff07001f
:102d60000080fa00000006000400fa001007980036
:102d70000000eb00000f7800060037001e009000f6
:102d80001e004000104078001100200066ff070080
:102d90001e0fe8001e009000c0f707009e0f5000b5
:102da000f6ff31000080fa00000006000000fa0083
:102db0001021a9001061a90011a1a90094e0a800a8
:102dc00031058000000027000100700030058800f8
:102dd0000080fa00000006000000fa001061a80060
:102de0001221a90013a1a9001021a90011a1a90075
:102df0009500a800400580007000b30040058800e1
:102e00000080fa00000006000200fa00000f7800bf
:102e10001e0078000000e00007003400e3ff070018
:102e20001e0078004400dd006008880011e1a80061
:102e30000140fe0001003700000000000080fa00a1
:102e4000000006000200fa00000f78001e00780063
:102e50000000e0000b003400d4ff07008108800070
:102e6000f0fc2f0000806000800888001e007800c1
:102e70004200dd006008880011e1a8000140fe006a
:102e800001003700000000000080fa00000006008a
:102e90000c00fa0040079800510798004e0090007f
:102ea000de009000e00f5000e08f58003d0032003f
:102eb000c9ff070081088000f0fc2f00008060003f
:102ec000800888004e019000de0190004218dd006d
:102ed000ce10de00810070004210dd004008de00f0
:102ee00001002000008fbe00f0ff2f000100200035
:102ef0001e01be0002027800030178008001780004
:102f00000100780003026200000061008000eb0015
:102f1000c000dd00000020000001be006120b800fc
:102f20000001710081817100028fbe004e0090008f
:102f3000de0090004209dd00ce01de008301710059
:102f40004201dd00f0ff2f000100200002027800a6
:102f5000030178008001780001007800030262001c
:102f6000000061008000eb00c000dd0000002000d8
:102f70000001be006120b800000171008181710074
:102f800022079800330798002e0090006008880000
:102f90001e0078007008880011e1a8000140fe00c2
:102fa00001003700000000000080fa000000060069
:102fb0000000fa00803e200093ff0700d040800010
:102fc00010007800e10f500020003a001016800039
:102fd000700060000000e00007003a00501680001a
:102fe000700060000000e00003003a00600e29005d
:102ff0005dff0700150037001016800070006000ac
:103000000000e00007003a005016800070006000e9
:103010000000e000030032006010290052ff0700aa
:103020000a00370010168000700060000000e00009
:103030000600320050168000700060000000e000c2
:1030400002003a007011290047ff07000080fa00d3
:10305000000006000200fa00000f78009e007800d1
:10306000d1408800c882a800c082a8006105800005
:103070000000270001007000600588008660a9003c
:103080009660a8006000a8006020a8006820a80042
:103090006800a8000080fa00000006000200fa00a4
:1030a000000f78009e007800d1408800c842a80038
:1030b00061058000f0ff280080806000000026008d
:1030c00001007000600588008660a9009660a80075
:1030d00060c0a8000080fa00000006000400fa00aa
:1030e000100798001e009000e80f500003003a00ff
:1030f0000040eb00004f7800100037009e00900069
:10310000401f2000808f500003003a0060c6b300cb
:10311000004f7800090037009e0090000002200058
:10312000808f500003003a0050c5b300004f780074
:103130000200370050c5b300004f78001102800034
:10314000000e20000100700010028800213a80006b
:10315000f08f2f0000806000203a88001e01fb00e5
:1031600080072000a10920003374200080497800e6
:103170008149780082497800120020006004200014
:10318000710520002374200080497800814978006f
:10319000824978004207a80000000000103a800031
:1031a000610060000000e000fcff3a0011028000b6
:1031b000f0f12f0000806000100288000080fa000b
:0431c0000000060005
:020000040000fa
:1031c4000e080000060000000000000018080000bf
:1031d40002000000000000001a08000002000000c5
:1031e40000000000000800000e00000000000000c5
:1031f400140800000400000002000000050a010099
:10320400000000003e0800001a0000000200000058
:10321400686a6c00747a4c0000000100000200002f
:103224000400080000100000000020002b2d2300e3
:10323400300000001c080000220000000200000012
:1032440030313200333435003637380039414200ea
:1032540043444500460030003132330034353600f3
:10326400373839006162630064656600000000005d
:043274000000000056
:020000040000fa
:103278000000fa00c9e2a9004fe7a8004fa7a9007b
:103288004f87a900713a8000f00f2f00008060007e
:10329800703a8800000220008eff0700413a800043
:1032a80000fc2f0000806000403a880046fc0700c0
:0832b8000140fe00feff37009b
:020000040000fa
:0200000401f009
:04000000ffff0000fe
:020000040000fa
:0200000401f009
:04000800ffff0000f6
:020000040000fa
:0200000401f009
:04000c0000000000f0
:020000040000fa
:0200000401f009
:040010005300000099
:020000040000fa
:0200000401f009
:0400140040000000a8
:020000040000fa
:0200000401f009
:0400180010000000d4
:020000040000fa
:0200000401f009
:04001c00c20000001e
:020000040000fa
:0200000401f009
:0400200017000000c5
:00000001FF
